{
  "contractName": "marketplace",
  "abi": [
    {
      "inputs": [
        {
          "internalType": "uint256",
          "name": "_emissionRate",
          "type": "uint256"
        },
        {
          "internalType": "contract IERC20",
          "name": "_lpToken",
          "type": "address"
        }
      ],
      "stateMutability": "nonpayable",
      "type": "constructor"
    },
    {
      "anonymous": false,
      "inputs": [
        {
          "indexed": true,
          "internalType": "address",
          "name": "previousOwner",
          "type": "address"
        },
        {
          "indexed": true,
          "internalType": "address",
          "name": "newOwner",
          "type": "address"
        }
      ],
      "name": "OwnershipTransferred",
      "type": "event"
    },
    {
      "inputs": [],
      "name": "emissionRate",
      "outputs": [
        {
          "internalType": "uint256",
          "name": "",
          "type": "uint256"
        }
      ],
      "stateMutability": "view",
      "type": "function"
    },
    {
      "inputs": [
        {
          "internalType": "uint256",
          "name": "",
          "type": "uint256"
        }
      ],
      "name": "nftInfo",
      "outputs": [
        {
          "internalType": "address",
          "name": "contractAddress",
          "type": "address"
        },
        {
          "internalType": "uint256",
          "name": "id",
          "type": "uint256"
        },
        {
          "internalType": "uint256",
          "name": "remaining",
          "type": "uint256"
        },
        {
          "internalType": "uint256",
          "name": "price",
          "type": "uint256"
        }
      ],
      "stateMutability": "view",
      "type": "function"
    },
    {
      "inputs": [],
      "name": "owner",
      "outputs": [
        {
          "internalType": "address",
          "name": "",
          "type": "address"
        }
      ],
      "stateMutability": "view",
      "type": "function"
    },
    {
      "inputs": [],
      "name": "renounceOwnership",
      "outputs": [],
      "stateMutability": "nonpayable",
      "type": "function"
    },
    {
      "inputs": [
        {
          "internalType": "address",
          "name": "newOwner",
          "type": "address"
        }
      ],
      "name": "transferOwnership",
      "outputs": [],
      "stateMutability": "nonpayable",
      "type": "function"
    },
    {
      "inputs": [
        {
          "internalType": "address",
          "name": "",
          "type": "address"
        }
      ],
      "name": "userInfo",
      "outputs": [
        {
          "internalType": "uint256",
          "name": "amount",
          "type": "uint256"
        },
        {
          "internalType": "uint256",
          "name": "lastUpdateAt",
          "type": "uint256"
        },
        {
          "internalType": "uint256",
          "name": "pointsDebt",
          "type": "uint256"
        }
      ],
      "stateMutability": "view",
      "type": "function"
    },
    {
      "inputs": [
        {
          "internalType": "address",
          "name": "contractAddress",
          "type": "address"
        },
        {
          "internalType": "uint256",
          "name": "id",
          "type": "uint256"
        },
        {
          "internalType": "uint256",
          "name": "total",
          "type": "uint256"
        },
        {
          "internalType": "uint256",
          "name": "price",
          "type": "uint256"
        }
      ],
      "name": "addNFT",
      "outputs": [],
      "stateMutability": "nonpayable",
      "type": "function"
    },
    {
      "inputs": [
        {
          "internalType": "uint256",
          "name": "_amount",
          "type": "uint256"
        }
      ],
      "name": "deposit",
      "outputs": [],
      "stateMutability": "nonpayable",
      "type": "function"
    },
    {
      "inputs": [
        {
          "internalType": "uint256",
          "name": "_nftIndex",
          "type": "uint256"
        },
        {
          "internalType": "uint256",
          "name": "_quantity",
          "type": "uint256"
        }
      ],
      "name": "claim",
      "outputs": [],
      "stateMutability": "nonpayable",
      "type": "function"
    },
    {
      "inputs": [
        {
          "internalType": "uint256[]",
          "name": "_nftIndex",
          "type": "uint256[]"
        },
        {
          "internalType": "uint256[]",
          "name": "_quantity",
          "type": "uint256[]"
        }
      ],
      "name": "claimMultiple",
      "outputs": [],
      "stateMutability": "nonpayable",
      "type": "function"
    },
    {
      "inputs": [],
      "name": "claimRandom",
      "outputs": [],
      "stateMutability": "nonpayable",
      "type": "function"
    },
    {
      "inputs": [
        {
          "internalType": "uint256",
          "name": "_amount",
          "type": "uint256"
        }
      ],
      "name": "withdraw",
      "outputs": [],
      "stateMutability": "nonpayable",
      "type": "function"
    },
    {
      "inputs": [],
      "name": "exit",
      "outputs": [],
      "stateMutability": "nonpayable",
      "type": "function"
    },
    {
      "inputs": [
        {
          "internalType": "address",
          "name": "userAddress",
          "type": "address"
        }
      ],
      "name": "pointsBalance",
      "outputs": [
        {
          "internalType": "uint256",
          "name": "",
          "type": "uint256"
        }
      ],
      "stateMutability": "view",
      "type": "function"
    },
    {
      "inputs": [],
      "name": "nftCount",
      "outputs": [
        {
          "internalType": "uint256",
          "name": "",
          "type": "uint256"
        }
      ],
      "stateMutability": "view",
      "type": "function"
    },
    {
      "inputs": [
        {
          "internalType": "address",
          "name": "operator",
          "type": "address"
        },
        {
          "internalType": "address",
          "name": "from",
          "type": "address"
        },
        {
          "internalType": "uint256",
          "name": "id",
          "type": "uint256"
        },
        {
          "internalType": "uint256",
          "name": "value",
          "type": "uint256"
        },
        {
          "internalType": "bytes",
          "name": "data",
          "type": "bytes"
        }
      ],
      "name": "onERC1155Received",
      "outputs": [
        {
          "internalType": "bytes4",
          "name": "",
          "type": "bytes4"
        }
      ],
      "stateMutability": "nonpayable",
      "type": "function"
    }
  ],
  "bytecode": "0x608060405234801561001057600080fd5b50604051611f7c380380611f7c8339818101604052604081101561003357600080fd5b810190808051906020019092919080519060200190929190505050600061005e61014b60201b60201c565b9050806000806101000a81548173ffffffffffffffffffffffffffffffffffffffff021916908373ffffffffffffffffffffffffffffffffffffffff1602179055508073ffffffffffffffffffffffffffffffffffffffff16600073ffffffffffffffffffffffffffffffffffffffff167f8be0079c531659141344cd1fd0a4f28419497f9722a3daafe3b4186f6b6457e060405160405180910390a3508160018190555080600260006101000a81548173ffffffffffffffffffffffffffffffffffffffff021916908373ffffffffffffffffffffffffffffffffffffffff1602179055505050610153565b600033905090565b611e1a806101626000396000f3fe608060405234801561001057600080fd5b50600436106101005760003560e01c8063715018a611610097578063c349026311610066578063c34902631461046c578063e9fad8ee146104a4578063f23a6e61146104ae578063f2fde38b146105cd57610100565b8063715018a6146103cc5780638da5cb5b146103d657806396afc45014610420578063b6b55f251461043e57610100565b806325ca4cff116100d357806325ca4cff1461026e5780632e1a7d4d146102c657806338c369f1146102f457806357db6e1d146102fe57610100565b80630af2c6ca146101055780631959a002146101235780631f8bc7901461018957806324e8cab31461020c575b600080fd5b61010d610611565b6040518082815260200191505060405180910390f35b6101656004803603602081101561013957600080fd5b81019080803573ffffffffffffffffffffffffffffffffffffffff16906020019092919050505061061e565b60405180848152602001838152602001828152602001935050505060405180910390f35b6101b56004803603602081101561019f57600080fd5b8101908080359060200190929190505050610648565b604051808573ffffffffffffffffffffffffffffffffffffffff1673ffffffffffffffffffffffffffffffffffffffff16815260200184815260200183815260200182815260200194505050505060405180910390f35b61026c6004803603608081101561022257600080fd5b81019080803573ffffffffffffffffffffffffffffffffffffffff1690602001909291908035906020019092919080359060200190929190803590602001909291905050506106a5565b005b6102b06004803603602081101561028457600080fd5b81019080803573ffffffffffffffffffffffffffffffffffffffff16906020019092919050505061092c565b6040518082815260200191505060405180910390f35b6102f2600480360360208110156102dc57600080fd5b81019080803590602001909291905050506109c7565b005b6102fc610b0e565b005b6103ca6004803603604081101561031457600080fd5b810190808035906020019064010000000081111561033157600080fd5b82018360208201111561034357600080fd5b8035906020019184602083028401116401000000008311171561036557600080fd5b90919293919293908035906020019064010000000081111561038657600080fd5b82018360208201111561039857600080fd5b803590602001918460208302840111640100000000831117156103ba57600080fd5b9091929391929390505050610be5565b005b6103d4610cd1565b005b6103de610e59565b604051808273ffffffffffffffffffffffffffffffffffffffff1673ffffffffffffffffffffffffffffffffffffffff16815260200191505060405180910390f35b610428610e82565b6040518082815260200191505060405180910390f35b61046a6004803603602081101561045457600080fd5b8101908080359060200190929190505050610e88565b005b6104a26004803603604081101561048257600080fd5b810190808035906020019092919080359060200190929190505050610f64565b005b6104ac611252565b005b610579600480360360a08110156104c457600080fd5b81019080803573ffffffffffffffffffffffffffffffffffffffff169060200190929190803573ffffffffffffffffffffffffffffffffffffffff16906020019092919080359060200190929190803590602001909291908035906020019064010000000081111561053557600080fd5b82018360208201111561054757600080fd5b8035906020019184600183028401116401000000008311171561056957600080fd5b90919293919293905050506112a7565b60405180827bffffffffffffffffffffffffffffffffffffffffffffffffffffffff19167bffffffffffffffffffffffffffffffffffffffffffffffffffffffff1916815260200191505060405180910390f35b61060f600480360360208110156105e357600080fd5b81019080803573ffffffffffffffffffffffffffffffffffffffff1690602001909291905050506112ce565b005b6000600380549050905090565b60046020528060005260406000206000915090508060000154908060010154908060020154905083565b6003818154811061065557fe5b90600052602060002090600402016000915090508060000160009054906101000a900473ffffffffffffffffffffffffffffffffffffffff16908060010154908060020154908060030154905084565b6106ad6114db565b73ffffffffffffffffffffffffffffffffffffffff166000809054906101000a900473ffffffffffffffffffffffffffffffffffffffff1673ffffffffffffffffffffffffffffffffffffffff161461076e576040517f08c379a00000000000000000000000000000000000000000000000000000000081526004018080602001828103825260208152602001807f4f776e61626c653a2063616c6c6572206973206e6f7420746865206f776e657281525060200191505060405180910390fd5b8373ffffffffffffffffffffffffffffffffffffffff1663f242432a333086866040518563ffffffff1660e01b8152600401808573ffffffffffffffffffffffffffffffffffffffff1673ffffffffffffffffffffffffffffffffffffffff1681526020018473ffffffffffffffffffffffffffffffffffffffff1673ffffffffffffffffffffffffffffffffffffffff1681526020018381526020018281526020018060200182810382526000815260200160200195505050505050600060405180830381600087803b15801561084557600080fd5b505af1158015610859573d6000803e3d6000fd5b50505050600360405180608001604052808673ffffffffffffffffffffffffffffffffffffffff16815260200185815260200184815260200183815250908060018154018082558091505060019003906000526020600020906004020160009091909190915060008201518160000160006101000a81548173ffffffffffffffffffffffffffffffffffffffff021916908373ffffffffffffffffffffffffffffffffffffffff160217905550602082015181600101556040820151816002015560608201518160030155505050505050565b6000610936611d1a565b600460008473ffffffffffffffffffffffffffffffffffffffff1673ffffffffffffffffffffffffffffffffffffffff168152602001908152602001600020604051806060016040529081600082015481526020016001820154815260200160028201548152505090506109bf6109ac826114e3565b826040015161152d90919063ffffffff16565b915050919050565b6000600460003373ffffffffffffffffffffffffffffffffffffffff1673ffffffffffffffffffffffffffffffffffffffff16815260200190815260200160002090508181600001541015610a84576040517f08c379a00000000000000000000000000000000000000000000000000000000081526004018080602001828103825260138152602001807f496e73756666696369656e74207374616b65640000000000000000000000000081525060200191505060405180910390fd5b610a8d3361092c565b8160020181905550610aac8282600001546115b590919063ffffffff16565b8160000181905550428160010181905550610b0a3383600260009054906101000a900473ffffffffffffffffffffffffffffffffffffffff1673ffffffffffffffffffffffffffffffffffffffff166115ff9092919063ffffffff16565b5050565b60005b610b19610611565b8167ffffffffffffffff161015610be257600060038267ffffffffffffffff1681548110610b4357fe5b906000526020600020906004020190506000610b5e3361092c565b90506000610b798360030154836116b790919063ffffffff16565b905060008360020154118015610b8f5750600081115b15610bd25782600201548111610bb857610bb38467ffffffffffffffff1682610f64565b610bd1565b610bd08467ffffffffffffffff168460020154610f64565b5b5b5050508080600101915050610b11565b50565b818190508484905014610c60576040517f08c379a00000000000000000000000000000000000000000000000000000000081526004018080602001828103825260168152602001807f496e636f7272656374206172726179206c656e6774680000000000000000000081525060200191505060405180910390fd5b60008090505b848490508167ffffffffffffffff161015610cca57610cbd85858367ffffffffffffffff16818110610c9457fe5b9050602002013584848467ffffffffffffffff16818110610cb157fe5b90506020020135610f64565b8080600101915050610c66565b5050505050565b610cd96114db565b73ffffffffffffffffffffffffffffffffffffffff166000809054906101000a900473ffffffffffffffffffffffffffffffffffffffff1673ffffffffffffffffffffffffffffffffffffffff1614610d9a576040517f08c379a00000000000000000000000000000000000000000000000000000000081526004018080602001828103825260208152602001807f4f776e61626c653a2063616c6c6572206973206e6f7420746865206f776e657281525060200191505060405180910390fd5b600073ffffffffffffffffffffffffffffffffffffffff166000809054906101000a900473ffffffffffffffffffffffffffffffffffffffff1673ffffffffffffffffffffffffffffffffffffffff167f8be0079c531659141344cd1fd0a4f28419497f9722a3daafe3b4186f6b6457e060405160405180910390a360008060006101000a81548173ffffffffffffffffffffffffffffffffffffffff021916908373ffffffffffffffffffffffffffffffffffffffff160217905550565b60008060009054906101000a900473ffffffffffffffffffffffffffffffffffffffff16905090565b60015481565b610ed7333083600260009054906101000a900473ffffffffffffffffffffffffffffffffffffffff1673ffffffffffffffffffffffffffffffffffffffff16611701909392919063ffffffff16565b6000600460003373ffffffffffffffffffffffffffffffffffffffff1673ffffffffffffffffffffffffffffffffffffffff16815260200190815260200160002090506000816000015414610f3857610f2f3361092c565b81600201819055505b610f4f82826000015461152d90919063ffffffff16565b81600001819055504281600101819055505050565b600060038381548110610f7357fe5b906000526020600020906004020190506000816002015411610ffd576040517f08c379a000000000000000000000000000000000000000000000000000000000815260040180806020018281038252600f8152602001807f416c6c204e465473206661726d6564000000000000000000000000000000000081525060200191505060405180910390fd5b6110148282600301546117ee90919063ffffffff16565b61101d3361092c565b1015611091576040517f08c379a00000000000000000000000000000000000000000000000000000000081526004018080602001828103825260138152602001807f496e73756666696369656e7420506f696e74730000000000000000000000000081525060200191505060405180910390fd5b6000600460003373ffffffffffffffffffffffffffffffffffffffff1673ffffffffffffffffffffffffffffffffffffffff16815260200190815260200160002090506111056110ee8484600301546117ee90919063ffffffff16565b6110f73361092c565b6115b590919063ffffffff16565b81600201819055504281600101819055508160000160009054906101000a900473ffffffffffffffffffffffffffffffffffffffff1673ffffffffffffffffffffffffffffffffffffffff1663f242432a30338560010154876040518563ffffffff1660e01b8152600401808573ffffffffffffffffffffffffffffffffffffffff1673ffffffffffffffffffffffffffffffffffffffff1681526020018473ffffffffffffffffffffffffffffffffffffffff1673ffffffffffffffffffffffffffffffffffffffff1681526020018381526020018281526020018060200182810382526000815260200160200195505050505050600060405180830381600087803b15801561121557600080fd5b505af1158015611229573d6000803e3d6000fd5b505050506112448383600201546115b590919063ffffffff16565b826002018190555050505050565b61125a610b0e565b6112a5600460003373ffffffffffffffffffffffffffffffffffffffff1673ffffffffffffffffffffffffffffffffffffffff168152602001908152602001600020600001546109c7565b565b60006040518080611dad603891396038019050604051809103902090509695505050505050565b6112d66114db565b73ffffffffffffffffffffffffffffffffffffffff166000809054906101000a900473ffffffffffffffffffffffffffffffffffffffff1673ffffffffffffffffffffffffffffffffffffffff1614611397576040517f08c379a00000000000000000000000000000000000000000000000000000000081526004018080602001828103825260208152602001807f4f776e61626c653a2063616c6c6572206973206e6f7420746865206f776e657281525060200191505060405180910390fd5b600073ffffffffffffffffffffffffffffffffffffffff168173ffffffffffffffffffffffffffffffffffffffff16141561141d576040517f08c379a0000000000000000000000000000000000000000000000000000000008152600401808060200182810382526026815260200180611d3c6026913960400191505060405180910390fd5b8073ffffffffffffffffffffffffffffffffffffffff166000809054906101000a900473ffffffffffffffffffffffffffffffffffffffff1673ffffffffffffffffffffffffffffffffffffffff167f8be0079c531659141344cd1fd0a4f28419497f9722a3daafe3b4186f6b6457e060405160405180910390a3806000806101000a81548173ffffffffffffffffffffffffffffffffffffffff021916908373ffffffffffffffffffffffffffffffffffffffff16021790555050565b600033905090565b6000611526826000015161151860015461150a8660200151426115b590919063ffffffff16565b6117ee90919063ffffffff16565b6117ee90919063ffffffff16565b9050919050565b6000808284019050838110156115ab576040517f08c379a000000000000000000000000000000000000000000000000000000000815260040180806020018281038252601b8152602001807f536166654d6174683a206164646974696f6e206f766572666c6f77000000000081525060200191505060405180910390fd5b8091505092915050565b60006115f783836040518060400160405280601e81526020017f536166654d6174683a207375627472616374696f6e206f766572666c6f770000815250611874565b905092915050565b6116b28363a9059cbb60e01b8484604051602401808373ffffffffffffffffffffffffffffffffffffffff1673ffffffffffffffffffffffffffffffffffffffff16815260200182815260200192505050604051602081830303815290604052907bffffffffffffffffffffffffffffffffffffffffffffffffffffffff19166020820180517bffffffffffffffffffffffffffffffffffffffffffffffffffffffff8381831617835250505050611934565b505050565b60006116f983836040518060400160405280601a81526020017f536166654d6174683a206469766973696f6e206279207a65726f000000000000815250611a23565b905092915050565b6117e8846323b872dd60e01b858585604051602401808473ffffffffffffffffffffffffffffffffffffffff1673ffffffffffffffffffffffffffffffffffffffff1681526020018373ffffffffffffffffffffffffffffffffffffffff1673ffffffffffffffffffffffffffffffffffffffff1681526020018281526020019350505050604051602081830303815290604052907bffffffffffffffffffffffffffffffffffffffffffffffffffffffff19166020820180517bffffffffffffffffffffffffffffffffffffffffffffffffffffffff8381831617835250505050611934565b50505050565b600080831415611801576000905061186e565b600082840290508284828161181257fe5b0414611869576040517f08c379a0000000000000000000000000000000000000000000000000000000008152600401808060200182810382526021815260200180611d626021913960400191505060405180910390fd5b809150505b92915050565b6000838311158290611921576040517f08c379a00000000000000000000000000000000000000000000000000000000081526004018080602001828103825283818151815260200191508051906020019080838360005b838110156118e65780820151818401526020810190506118cb565b50505050905090810190601f1680156119135780820380516001836020036101000a031916815260200191505b509250505060405180910390fd5b5060008385039050809150509392505050565b6060611996826040518060400160405280602081526020017f5361666545524332303a206c6f772d6c6576656c2063616c6c206661696c65648152508573ffffffffffffffffffffffffffffffffffffffff16611ae99092919063ffffffff16565b9050600081511115611a1e578080602001905160208110156119b757600080fd5b8101908080519060200190929190505050611a1d576040517f08c379a000000000000000000000000000000000000000000000000000000000815260040180806020018281038252602a815260200180611d83602a913960400191505060405180910390fd5b5b505050565b60008083118290611acf576040517f08c379a00000000000000000000000000000000000000000000000000000000081526004018080602001828103825283818151815260200191508051906020019080838360005b83811015611a94578082015181840152602081019050611a79565b50505050905090810190601f168015611ac15780820380516001836020036101000a031916815260200191505b509250505060405180910390fd5b506000838581611adb57fe5b049050809150509392505050565b6060611af88484600085611b01565b90509392505050565b6060611b0c85611d07565b611b7e576040517f08c379a000000000000000000000000000000000000000000000000000000000815260040180806020018281038252601d8152602001807f416464726573733a2063616c6c20746f206e6f6e2d636f6e747261637400000081525060200191505060405180910390fd5b600060608673ffffffffffffffffffffffffffffffffffffffff1685876040518082805190602001908083835b60208310611bce5780518252602082019150602081019050602083039250611bab565b6001836020036101000a03801982511681845116808217855250505050505090500191505060006040518083038185875af1925050503d8060008114611c30576040519150601f19603f3d011682016040523d82523d6000602084013e611c35565b606091505b50915091508115611c4a578092505050611cff565b600081511115611c5d5780518082602001fd5b836040517f08c379a00000000000000000000000000000000000000000000000000000000081526004018080602001828103825283818151815260200191508051906020019080838360005b83811015611cc4578082015181840152602081019050611ca9565b50505050905090810190601f168015611cf15780820380516001836020036101000a031916815260200191505b509250505060405180910390fd5b949350505050565b600080823b905060008111915050919050565b6040518060600160405280600081526020016000815260200160008152509056fe4f776e61626c653a206e6577206f776e657220697320746865207a65726f2061646472657373536166654d6174683a206d756c7469706c69636174696f6e206f766572666c6f775361666545524332303a204552433230206f7065726174696f6e20646964206e6f7420737563636565646f6e45524331313535526563656976656428616464726573732c616464726573732c75696e743235362c75696e743235362c627974657329a26469706673582212209e5058dcc25388324247849a339c8aa767c2913575dd0f783001209e6378a5bb64736f6c63430006060033",
  "immutableReferences": {},
  "source": "pragma solidity ^0.6.0;\n\nimport \"../node_modules/@openzeppelin/contracts/math/SafeMath.sol\";\nimport \"../node_modules/@openzeppelin/contracts/access/Ownable.sol\";\nimport \"../node_modules/@openzeppelin/contracts/token/ERC20/IERC20.sol\";\nimport \"../node_modules/@openzeppelin/contracts/token/ERC20/SafeERC20.sol\";\nimport \"../node_modules/@openzeppelin/contracts/token/ERC1155/IERC1155.sol\";\n\ncontract marketplace is Ownable {\n    using SafeMath for uint256;\n    using SafeERC20 for IERC20;\n    \n    struct UserInfo {\n        uint256 amount;         \n        uint256 lastUpdateAt;   \n        uint256 pointsDebt;     \n    \n     }\n    \n    struct NFTInfo {\n        address contractAddress;\n        uint256 id;             \n        uint256 remaining;      \n        uint256 price;          \n         }\n    \n    uint256 public emissionRate;       \n    IERC20 lpToken;                   \n    \n    NFTInfo[] public nftInfo;\n    mapping(address => UserInfo) public userInfo;\n    \n    constructor(uint256 _emissionRate, IERC20 _lpToken) public {\n        emissionRate = _emissionRate;\n        lpToken = _lpToken;\n    }\n    \n    function addNFT(\n        address contractAddress,    \n        uint256 id,\n        uint256 total,             \n        uint256 price\n    ) external onlyOwner {\n        IERC1155(contractAddress).safeTransferFrom(\n            msg.sender,\n            address(this),\n            id,\n            total,\n            \"\"\n        );\n        nftInfo.push(NFTInfo({\n            contractAddress: contractAddress,\n            id: id,\n            remaining: total,\n            price: price\n        }));\n    }\n    \n    function deposit(uint256 _amount) external {\n        lpToken.safeTransferFrom(\n            msg.sender,\n            address(this),\n            _amount\n        );\n        \n        UserInfo storage user = userInfo[msg.sender];\n        \n        \n        if(user.amount != 0) {\n            user.pointsDebt = pointsBalance(msg.sender);\n        }\n        user.amount = user.amount.add(_amount);\n        user.lastUpdateAt = now;\n    }\n    \n    \n    function claim(uint256 _nftIndex, uint256 _quantity) public {\n        NFTInfo storage nft = nftInfo[_nftIndex];\n        require(nft.remaining > 0, \"All NFTs farmed\");\n        require(pointsBalance(msg.sender) >= nft.price.mul(_quantity), \"Insufficient Points\");\n        UserInfo storage user = userInfo[msg.sender];\n        \n        \n        user.pointsDebt = pointsBalance(msg.sender).sub(nft.price.mul(_quantity));\n        user.lastUpdateAt = now;\n        \n        \n        IERC1155(nft.contractAddress).safeTransferFrom(\n            address(this),\n            msg.sender,\n            nft.id,\n            _quantity,\n            \"\"\n        );\n        \n        nft.remaining = nft.remaining.sub(_quantity);\n    }\n    \n    function claimMultiple(uint256[] calldata _nftIndex, uint256[] calldata _quantity) external {\n        require(_nftIndex.length == _quantity.length, \"Incorrect array length\");\n        for(uint64 i=0; i< _nftIndex.length; i++) {\n            claim(_nftIndex[i], _quantity[i]);\n        }\n    }\n    \n   \n    function claimRandom() public {\n        for(uint64 i; i < nftCount(); i++) {\n            NFTInfo storage nft = nftInfo[i];\n            uint256 userBalance = pointsBalance(msg.sender);\n            uint256 maxQty = userBalance.div(nft.price);        \n            if(nft.remaining > 0 && maxQty > 0) {\n                if(maxQty <= nft.remaining) {\n                    claim(i, maxQty);\n                } else {\n                    claim(i, nft.remaining);\n                }\n            }\n        }\n    }\n    \n    function withdraw(uint256 _amount) public {\n        UserInfo storage user = userInfo[msg.sender];\n        require(user.amount >= _amount, \"Insufficient staked\");\n        \n        \n        user.pointsDebt = pointsBalance(msg.sender);\n        user.amount = user.amount.sub(_amount);\n        user.lastUpdateAt = now;\n        \n        lpToken.safeTransfer(\n            msg.sender,\n            _amount\n        );\n    }\n    \n    \n    function exit() external {\n        claimRandom();\n        withdraw(userInfo[msg.sender].amount);\n    }\n    \n    function pointsBalance(address userAddress) public view returns (uint256) {\n        UserInfo memory user = userInfo[userAddress];\n        return user.pointsDebt.add(_unDebitedPoints(user));\n    }\n    \n    function _unDebitedPoints(UserInfo memory user) internal view returns (uint256) {\n        return now.sub(user.lastUpdateAt).mul(emissionRate).mul(user.amount);\n    }\n    \n    function nftCount() public view returns (uint256) {\n        return nftInfo.length;\n    }\n    \n  \n    function onERC1155Received(\n        address operator,\n        address from,\n        uint256 id,\n        uint256 value,\n        bytes calldata data\n    )\n        external\n        returns(bytes4)\n    {\n        return bytes4(keccak256(\"onERC1155Received(address,address,uint256,uint256,bytes)\"));\n    }\n}",
  "sourcePath": "/Users/akshatshah/Desktop/secondtask/contracts/marketplace.sol",
  "compiler": {
    "name": "solc",
    "version": "0.6.6+commit.6c089d02.Emscripten.clang"
  },
  "schemaVersion": "3.4.3",
  "updatedAt": "2021-09-23T07:09:42.348Z",
  "devdoc": {
    "methods": {
      "owner()": {
        "details": "Returns the address of the current owner."
      },
      "renounceOwnership()": {
        "details": "Leaves the contract without owner. It will not be possible to call `onlyOwner` functions anymore. Can only be called by the current owner.     * NOTE: Renouncing ownership will leave the contract without an owner, thereby removing any functionality that is only available to the owner."
      },
      "transferOwnership(address)": {
        "details": "Transfers ownership of the contract to a new account (`newOwner`). Can only be called by the current owner."
      }
    }
  },
  "userdoc": {
    "methods": {}
  }
}